{"abi":[{"type":"constructor","inputs":[{"name":"__avsDirectory","type":"address","internalType":"contract IAVSDirectory"},{"name":"__rewardsCoordinator","type":"address","internalType":"contract IRewardsCoordinator"},{"name":"__registryCoordinator","type":"address","internalType":"contract IRegistryCoordinator"},{"name":"__stakeRegistry","type":"address","internalType":"contract IStakeRegistry"}],"stateMutability":"nonpayable"},{"type":"receive","stateMutability":"payable"},{"type":"function","name":"avsDirectory","inputs":[],"outputs":[{"name":"","type":"address","internalType":"address"}],"stateMutability":"view"},{"type":"function","name":"balanceOf","inputs":[{"name":"account","type":"address","internalType":"address"}],"outputs":[{"name":"","type":"uint256","internalType":"uint256"}],"stateMutability":"view"},{"type":"function","name":"batchesState","inputs":[{"name":"","type":"bytes32","internalType":"bytes32"}],"outputs":[{"name":"taskCreatedBlock","type":"uint32","internalType":"uint32"},{"name":"responded","type":"bool","internalType":"bool"}],"stateMutability":"view"},{"type":"function","name":"blsApkRegistry","inputs":[],"outputs":[{"name":"","type":"address","internalType":"contract IBLSApkRegistry"}],"stateMutability":"view"},{"type":"function","name":"checkPublicInput","inputs":[{"name":"publicInput","type":"bytes","internalType":"bytes"},{"name":"hash","type":"bytes32","internalType":"bytes32"}],"outputs":[{"name":"","type":"bool","internalType":"bool"}],"stateMutability":"pure"},{"type":"function","name":"checkSignatures","inputs":[{"name":"msgHash","type":"bytes32","internalType":"bytes32"},{"name":"referenceBlockNumber","type":"uint32","internalType":"uint32"},{"name":"params","type":"tuple","internalType":"struct IBLSSignatureChecker.NonSignerStakesAndSignature","components":[{"name":"nonSignerQuorumBitmapIndices","type":"uint32[]","internalType":"uint32[]"},{"name":"nonSignerPubkeys","type":"tuple[]","internalType":"struct BN254.G1Point[]","components":[{"name":"X","type":"uint256","internalType":"uint256"},{"name":"Y","type":"uint256","internalType":"uint256"}]},{"name":"quorumApks","type":"tuple[]","internalType":"struct BN254.G1Point[]","components":[{"name":"X","type":"uint256","internalType":"uint256"},{"name":"Y","type":"uint256","internalType":"uint256"}]},{"name":"apkG2","type":"tuple","internalType":"struct BN254.G2Point","components":[{"name":"X","type":"uint256[2]","internalType":"uint256[2]"},{"name":"Y","type":"uint256[2]","internalType":"uint256[2]"}]},{"name":"sigma","type":"tuple","internalType":"struct BN254.G1Point","components":[{"name":"X","type":"uint256","internalType":"uint256"},{"name":"Y","type":"uint256","internalType":"uint256"}]},{"name":"quorumApkIndices","type":"uint32[]","internalType":"uint32[]"},{"name":"totalStakeIndices","type":"uint32[]","internalType":"uint32[]"},{"name":"nonSignerStakeIndices","type":"uint32[][]","internalType":"uint32[][]"}]}],"outputs":[{"name":"","type":"tuple","internalType":"struct IBLSSignatureChecker.QuorumStakeTotals","components":[{"name":"signedStakeForQuorum","type":"uint96[]","internalType":"uint96[]"},{"name":"totalStakeForQuorum","type":"uint96[]","internalType":"uint96[]"}]},{"name":"","type":"bytes32","internalType":"bytes32"}],"stateMutability":"view"},{"type":"function","name":"createAVSRewardsSubmission","inputs":[{"name":"rewardsSubmissions","type":"tuple[]","internalType":"struct IRewardsCoordinator.RewardsSubmission[]","components":[{"name":"strategiesAndMultipliers","type":"tuple[]","internalType":"struct IRewardsCoordinator.StrategyAndMultiplier[]","components":[{"name":"strategy","type":"address","internalType":"contract IStrategy"},{"name":"multiplier","type":"uint96","internalType":"uint96"}]},{"name":"token","type":"address","internalType":"contract IERC20"},{"name":"amount","type":"uint256","internalType":"uint256"},{"name":"startTimestamp","type":"uint32","internalType":"uint32"},{"name":"duration","type":"uint32","internalType":"uint32"}]}],"outputs":[],"stateMutability":"nonpayable"},{"type":"function","name":"createNewTask","inputs":[{"name":"batchMerkleRoot","type":"bytes32","internalType":"bytes32"},{"name":"batchDataPointer","type":"string","internalType":"string"}],"outputs":[],"stateMutability":"payable"},{"type":"function","name":"delegation","inputs":[],"outputs":[{"name":"","type":"address","internalType":"contract IDelegationManager"}],"stateMutability":"view"},{"type":"function","name":"deregisterOperatorFromAVS","inputs":[{"name":"operator","type":"address","internalType":"address"}],"outputs":[],"stateMutability":"nonpayable"},{"type":"function","name":"getOperatorRestakedStrategies","inputs":[{"name":"operator","type":"address","internalType":"address"}],"outputs":[{"name":"","type":"address[]","internalType":"address[]"}],"stateMutability":"view"},{"type":"function","name":"getRestakeableStrategies","inputs":[],"outputs":[{"name":"","type":"address[]","internalType":"address[]"}],"stateMutability":"view"},{"type":"function","name":"initialize","inputs":[{"name":"_initialOwner","type":"address","internalType":"address"},{"name":"_rewardsInitiator","type":"address","internalType":"address"}],"outputs":[],"stateMutability":"nonpayable"},{"type":"function","name":"owner","inputs":[],"outputs":[{"name":"","type":"address","internalType":"address"}],"stateMutability":"view"},{"type":"function","name":"registerOperatorToAVS","inputs":[{"name":"operator","type":"address","internalType":"address"},{"name":"operatorSignature","type":"tuple","internalType":"struct ISignatureUtils.SignatureWithSaltAndExpiry","components":[{"name":"signature","type":"bytes","internalType":"bytes"},{"name":"salt","type":"bytes32","internalType":"bytes32"},{"name":"expiry","type":"uint256","internalType":"uint256"}]}],"outputs":[],"stateMutability":"nonpayable"},{"type":"function","name":"registryCoordinator","inputs":[],"outputs":[{"name":"","type":"address","internalType":"contract IRegistryCoordinator"}],"stateMutability":"view"},{"type":"function","name":"renounceOwnership","inputs":[],"outputs":[],"stateMutability":"nonpayable"},{"type":"function","name":"respondToTask","inputs":[{"name":"batchMerkleRoot","type":"bytes32","internalType":"bytes32"},{"name":"nonSignerStakesAndSignature","type":"tuple","internalType":"struct IBLSSignatureChecker.NonSignerStakesAndSignature","components":[{"name":"nonSignerQuorumBitmapIndices","type":"uint32[]","internalType":"uint32[]"},{"name":"nonSignerPubkeys","type":"tuple[]","internalType":"struct BN254.G1Point[]","components":[{"name":"X","type":"uint256","internalType":"uint256"},{"name":"Y","type":"uint256","internalType":"uint256"}]},{"name":"quorumApks","type":"tuple[]","internalType":"struct BN254.G1Point[]","components":[{"name":"X","type":"uint256","internalType":"uint256"},{"name":"Y","type":"uint256","internalType":"uint256"}]},{"name":"apkG2","type":"tuple","internalType":"struct BN254.G2Point","components":[{"name":"X","type":"uint256[2]","internalType":"uint256[2]"},{"name":"Y","type":"uint256[2]","internalType":"uint256[2]"}]},{"name":"sigma","type":"tuple","internalType":"struct BN254.G1Point","components":[{"name":"X","type":"uint256","internalType":"uint256"},{"name":"Y","type":"uint256","internalType":"uint256"}]},{"name":"quorumApkIndices","type":"uint32[]","internalType":"uint32[]"},{"name":"totalStakeIndices","type":"uint32[]","internalType":"uint32[]"},{"name":"nonSignerStakeIndices","type":"uint32[][]","internalType":"uint32[][]"}]}],"outputs":[],"stateMutability":"nonpayable"},{"type":"function","name":"respondToTaskV2","inputs":[{"name":"batchMerkleRoot","type":"bytes32","internalType":"bytes32"},{"name":"senderAddress","type":"address","internalType":"address"},{"name":"nonSignerStakesAndSignature","type":"tuple","internalType":"struct IBLSSignatureChecker.NonSignerStakesAndSignature","components":[{"name":"nonSignerQuorumBitmapIndices","type":"uint32[]","internalType":"uint32[]"},{"name":"nonSignerPubkeys","type":"tuple[]","internalType":"struct BN254.G1Point[]","components":[{"name":"X","type":"uint256","internalType":"uint256"},{"name":"Y","type":"uint256","internalType":"uint256"}]},{"name":"quorumApks","type":"tuple[]","internalType":"struct BN254.G1Point[]","components":[{"name":"X","type":"uint256","internalType":"uint256"},{"name":"Y","type":"uint256","internalType":"uint256"}]},{"name":"apkG2","type":"tuple","internalType":"struct BN254.G2Point","components":[{"name":"X","type":"uint256[2]","internalType":"uint256[2]"},{"name":"Y","type":"uint256[2]","internalType":"uint256[2]"}]},{"name":"sigma","type":"tuple","internalType":"struct BN254.G1Point","components":[{"name":"X","type":"uint256","internalType":"uint256"},{"name":"Y","type":"uint256","internalType":"uint256"}]},{"name":"quorumApkIndices","type":"uint32[]","internalType":"uint32[]"},{"name":"totalStakeIndices","type":"uint32[]","internalType":"uint32[]"},{"name":"nonSignerStakeIndices","type":"uint32[][]","internalType":"uint32[][]"}]}],"outputs":[],"stateMutability":"nonpayable"},{"type":"function","name":"responded","inputs":[{"name":"batchMerkleRoot","type":"bytes32","internalType":"bytes32"},{"name":"senderAddress","type":"address","internalType":"address"}],"outputs":[{"name":"","type":"bool","internalType":"bool"}],"stateMutability":"view"},{"type":"function","name":"rewardsInitiator","inputs":[],"outputs":[{"name":"","type":"address","internalType":"address"}],"stateMutability":"view"},{"type":"function","name":"setRewardsInitiator","inputs":[{"name":"newRewardsInitiator","type":"address","internalType":"address"}],"outputs":[],"stateMutability":"nonpayable"},{"type":"function","name":"setStaleStakesForbidden","inputs":[{"name":"value","type":"bool","internalType":"bool"}],"outputs":[],"stateMutability":"nonpayable"},{"type":"function","name":"stakeRegistry","inputs":[],"outputs":[{"name":"","type":"address","internalType":"contract IStakeRegistry"}],"stateMutability":"view"},{"type":"function","name":"staleStakesForbidden","inputs":[],"outputs":[{"name":"","type":"bool","internalType":"bool"}],"stateMutability":"view"},{"type":"function","name":"taskCreatedBlock","inputs":[{"name":"batchMerkleRoot","type":"bytes32","internalType":"bytes32"},{"name":"senderAddress","type":"address","internalType":"address"}],"outputs":[{"name":"","type":"uint256","internalType":"uint256"}],"stateMutability":"view"},{"type":"function","name":"transferOwnership","inputs":[{"name":"newOwner","type":"address","internalType":"address"}],"outputs":[],"stateMutability":"nonpayable"},{"type":"function","name":"trySignatureAndApkVerification","inputs":[{"name":"msgHash","type":"bytes32","internalType":"bytes32"},{"name":"apk","type":"tuple","internalType":"struct BN254.G1Point","components":[{"name":"X","type":"uint256","internalType":"uint256"},{"name":"Y","type":"uint256","internalType":"uint256"}]},{"name":"apkG2","type":"tuple","internalType":"struct BN254.G2Point","components":[{"name":"X","type":"uint256[2]","internalType":"uint256[2]"},{"name":"Y","type":"uint256[2]","internalType":"uint256[2]"}]},{"name":"sigma","type":"tuple","internalType":"struct BN254.G1Point","components":[{"name":"X","type":"uint256","internalType":"uint256"},{"name":"Y","type":"uint256","internalType":"uint256"}]}],"outputs":[{"name":"pairingSuccessful","type":"bool","internalType":"bool"},{"name":"siganatureIsValid","type":"bool","internalType":"bool"}],"stateMutability":"view"},{"type":"function","name":"updateAVSMetadataURI","inputs":[{"name":"_metadataURI","type":"string","internalType":"string"}],"outputs":[],"stateMutability":"nonpayable"},{"type":"function","name":"verifyBatchInclusion","inputs":[{"name":"proofCommitment","type":"bytes32","internalType":"bytes32"},{"name":"pubInputCommitment","type":"bytes32","internalType":"bytes32"},{"name":"provingSystemAuxDataCommitment","type":"bytes32","internalType":"bytes32"},{"name":"proofGeneratorAddr","type":"bytes20","internalType":"bytes20"},{"name":"batchMerkleRoot","type":"bytes32","internalType":"bytes32"},{"name":"merkleProof","type":"bytes","internalType":"bytes"},{"name":"verificationDataBatchIndex","type":"uint256","internalType":"uint256"},{"name":"senderAddress","type":"address","internalType":"address"}],"outputs":[{"name":"","type":"bool","internalType":"bool"}],"stateMutability":"view"},{"type":"event","name":"BatchVerified","inputs":[{"name":"batchMerkleRoot","type":"bytes32","indexed":true,"internalType":"bytes32"},{"name":"senderAddress","type":"address","indexed":false,"internalType":"address"}],"anonymous":false},{"type":"event","name":"BatcherBalanceUpdated","inputs":[{"name":"batcher","type":"address","indexed":true,"internalType":"address"},{"name":"newBalance","type":"uint256","indexed":false,"internalType":"uint256"}],"anonymous":false},{"type":"event","name":"Initialized","inputs":[{"name":"version","type":"uint8","indexed":false,"internalType":"uint8"}],"anonymous":false},{"type":"event","name":"NewBatch","inputs":[{"name":"batchMerkleRoot","type":"bytes32","indexed":true,"internalType":"bytes32"},{"name":"taskCreatedBlock","type":"uint32","indexed":false,"internalType":"uint32"},{"name":"batchDataPointer","type":"string","indexed":false,"internalType":"string"}],"anonymous":false},{"type":"event","name":"NewBatchV2","inputs":[{"name":"batchMerkleRoot","type":"bytes32","indexed":true,"internalType":"bytes32"},{"name":"senderAddress","type":"address","indexed":false,"internalType":"address"},{"name":"taskCreatedBlock","type":"uint32","indexed":false,"internalType":"uint32"},{"name":"batchDataPointer","type":"string","indexed":false,"internalType":"string"}],"anonymous":false},{"type":"event","name":"OwnershipTransferred","inputs":[{"name":"previousOwner","type":"address","indexed":true,"internalType":"address"},{"name":"newOwner","type":"address","indexed":true,"internalType":"address"}],"anonymous":false},{"type":"event","name":"RewardsInitiatorUpdated","inputs":[{"name":"prevRewardsInitiator","type":"address","indexed":false,"internalType":"address"},{"name":"newRewardsInitiator","type":"address","indexed":false,"internalType":"address"}],"anonymous":false},{"type":"event","name":"StaleStakesForbiddenUpdate","inputs":[{"name":"value","type":"bool","indexed":false,"internalType":"bool"}],"anonymous":false}],"bytecode":{"object":"0x6101806040523480156200001257600080fd5b506040516200571d3803806200571d8339810160408190526200003591620002e5565b6001600160a01b0380851660805280841660a05280831660c052811660e0528184848284620000636200020a565b50505050806001600160a01b0316610100816001600160a01b031681525050806001600160a01b031663683048356040518163ffffffff1660e01b8152600401602060405180830381865afa158015620000c1573d6000803e3d6000fd5b505050506040513d601f19601f82011682018060405250810190620000e791906200034d565b6001600160a01b0316610120816001600160a01b031681525050806001600160a01b0316635df459466040518163ffffffff1660e01b8152600401602060405180830381865afa15801562000140573d6000803e3d6000fd5b505050506040513d601f19601f820116820180604052508101906200016691906200034d565b6001600160a01b0316610140816001600160a01b031681525050610120516001600160a01b031663df5cf7236040518163ffffffff1660e01b8152600401602060405180830381865afa158015620001c2573d6000803e3d6000fd5b505050506040513d601f19601f82011682018060405250810190620001e891906200034d565b6001600160a01b03166101605250620002006200020a565b5050505062000374565b600054610100900460ff1615620002775760405162461bcd60e51b815260206004820152602760248201527f496e697469616c697a61626c653a20636f6e747261637420697320696e697469604482015266616c697a696e6760c81b606482015260840160405180910390fd5b60005460ff9081161015620002ca576000805460ff191660ff9081179091556040519081527f7f26b83ff96e1f2b6a682f133852f6798a09c465da95921460cefb38474024989060200160405180910390a15b565b6001600160a01b0381168114620002e257600080fd5b50565b60008060008060808587031215620002fc57600080fd5b84516200030981620002cc565b60208601519094506200031c81620002cc565b60408601519093506200032f81620002cc565b60608601519092506200034281620002cc565b939692955090935050565b6000602082840312156200036057600080fd5b81516200036d81620002cc565b9392505050565b60805160a05160c05160e0516101005161012051610140516101605161529b620004826000396000818161064601526119f80152600081816103b30152611c0b0152600081816103ff01528181611df80152611fe801526000818161046601528181611115015281816116b40152818161185b0152611aac015260008181610e2a01528181610f850152818161101c01528181612b8101528181612d040152612da3015260008181610c5101528181610ce001528181610d6001528181612531015281816125fd01528181612abf0152612c5f01526000818161311e015281816131da01526132c6015260008181610430015281816125850152818161265901526126d8015261529b6000f3fe6080604052600436106101d15760003560e01c80638da5cb5b116100f7578063b099627e11610095578063f2fde38b11610064578063f2fde38b1461067d578063f4d782d71461069d578063fc299dee146106bd578063fce36c7d146106dd57600080fd5b8063b099627e146105bf578063b98d09081461061a578063df5cf72314610634578063e481af9d1461066857600080fd5b8063a364f4da116100d1578063a364f4da1461053f578063a98fb3551461055f578063ab21739a1461057f578063ad22a4451461059f57600080fd5b80638da5cb5b146104e157806395c6d604146104ff5780639926ee7d1461051f57600080fd5b80634ae07c371161016f5780636b3aa72e1161013e5780636b3aa72e146104215780636d14a9871461045457806370a0823114610488578063715018a6146104cc57600080fd5b80634ae07c37146103605780635c0089941461038e5780635df45946146103a157806368304835146103ed57600080fd5b806333cfb7b7116101ab57806333cfb7b7146102d35780633bc28c8c14610300578063416c7e5e14610320578063485cc9551461034057600080fd5b806306045a9114610245578063171f1d5b1461027a5780632dd94eba146102b157600080fd5b366102405733600090815260ca6020526040812080543492906101f590849061412f565b909155505033600081815260ca60209081526040918290205491519182527f0ea46f246ccfc58f7a93aa09bc6245a6818e97b1a160d186afe78993a3b194a0910160405180910390a2005b600080fd5b34801561025157600080fd5b50610265610260366004614264565b6106fd565b60405190151581526020015b60405180910390f35b34801561028657600080fd5b5061029a6102953660046143c5565b6107a2565b604080519215158352901515602083015201610271565b3480156102bd57600080fd5b506102d16102cc3660046146cc565b61092c565b005b3480156102df57600080fd5b506102f36102ee366004614712565b610c2c565b604051610271919061472f565b34801561030c57600080fd5b506102d161031b366004614712565b6110ff565b34801561032c57600080fd5b506102d161033b36600461478a565b611113565b34801561034c57600080fd5b506102d161035b3660046147a7565b61124a565b34801561036c57600080fd5b5061038061037b3660046147e0565b61135f565b60405161027192919061487a565b6102d161039c36600461490b565b6122b2565b3480156103ad57600080fd5b506103d57f000000000000000000000000000000000000000000000000000000000000000081565b6040516001600160a01b039091168152602001610271565b3480156103f957600080fd5b506103d57f000000000000000000000000000000000000000000000000000000000000000081565b34801561042d57600080fd5b507f00000000000000000000000000000000000000000000000000000000000000006103d5565b34801561046057600080fd5b506103d57f000000000000000000000000000000000000000000000000000000000000000081565b34801561049457600080fd5b506104be6104a3366004614712565b6001600160a01b0316600090815260ca602052604090205490565b604051908152602001610271565b3480156104d857600080fd5b506102d16124ed565b3480156104ed57600080fd5b506033546001600160a01b03166103d5565b34801561050b57600080fd5b5061026561051a366004614956565b612501565b34801561052b57600080fd5b506102d161053a3660046149a1565b612526565b34801561054b57600080fd5b506102d161055a366004614712565b6125f2565b34801561056b57600080fd5b506102d161057a366004614a4c565b6126b9565b34801561058b57600080fd5b506102d161059a366004614a9c565b61270d565b3480156105ab57600080fd5b506104be6105ba366004614ac3565b612a6e565b3480156105cb57600080fd5b506105fe6105da366004614ae8565b60c96020526000908152604090205463ffffffff811690600160201b900460ff1682565b6040805163ffffffff9093168352901515602083015201610271565b34801561062657600080fd5b506097546102659060ff1681565b34801561064057600080fd5b506103d57f000000000000000000000000000000000000000000000000000000000000000081565b34801561067457600080fd5b506102f3612ab9565b34801561068957600080fd5b506102d1610698366004614712565b612e82565b3480156106a957600080fd5b506102656106b8366004614ac3565b612ef8565b3480156106c957600080fd5b506065546103d5906001600160a01b031681565b3480156106e957600080fd5b506102d16106f8366004614b01565b612f45565b60008062229cd743101561071257508461073e565b8583604051602001610725929190614b75565b6040516020818303038152906040528051906020012090505b60408051602081018c90529081018a9052606081018990526001600160601b03198816608082015260009060940160408051601f1981840301815291905280516020820120909150610792878483896132fd565b9c9b505050505050505050505050565b60008060007f30644e72e131a029b85045b68181585d2833e84879b9709143e1f593f0000001878760000151886020015188600001516000600281106107ea576107ea614b90565b60200201518951600160200201518a6020015160006002811061080f5761080f614b90565b60200201518b6020015160016002811061082b5761082b614b90565b602090810291909101518c518d8301516040516108889a99989796959401988952602089019790975260408801959095526060870193909352608086019190915260a085015260c084015260e08301526101008201526101200190565b6040516020818303038152906040528051906020012060001c6108ab9190614ba6565b905061091e6108c46108bd8884613315565b86906133ac565b6108cc613440565b610914610905856108ff604080518082018252600080825260209182015281518083019092526001825260029082015290565b90613315565b61090e8c613500565b906133ac565b886201d4c0613590565b909890975095505050505050565b737969c5ed335650692bc04293b07f5bf2e7a673c060005a600085815260c9602052604090205490915063ffffffff166109a45760405162461bcd60e51b8152602060048201526014602482015273426174636820646f65736e27742065786973747360601b60448201526064015b60405180910390fd5b600084815260c96020526040902054600160201b900460ff1615610a045760405162461bcd60e51b815260206004820152601760248201527610985d18da08185b1c9958591e481c995cdc1bdb991959604a1b604482015260640161099b565b6001600160a01b038216600090815260ca6020526040902054610a625760405162461bcd60e51b81526020600482015260166024820152754261746368657220686173206e6f2062616c616e636560501b604482015260640161099b565b600084815260c960205260408120805464ff00000000198116600160201b179091558190610a9890879063ffffffff168761135f565b91509150604360ff168260200151600081518110610ab857610ab8614b90565b6020026020010151610aca9190614bc8565b6001600160601b031660648360000151600081518110610aec57610aec614b90565b60200260200101516001600160601b0316610b079190614bf7565b1015610b255760405162461bcd60e51b815260040161099b90614c16565b6040516001600160a01b038516815286907f8511746b73275e06971968773119b9601fc501d7bdf3824d8754042d148940e29060200160405180910390a260005a905060003a610b758387614c74565b610b82906201117061412f565b610b8c9190614bf7565b6001600160a01b038716600090815260ca6020526040902054909150811115610bc75760405162461bcd60e51b815260040161099b90614c8b565b6001600160a01b038616600090815260ca602052604081208054839290610bef908490614c74565b9091555050604051339082156108fc029083906000818181858888f19350505050158015610c21573d6000803e3d6000fd5b505050505050505050565b6040516309aa152760e11b81526001600160a01b0382811660048301526060916000917f000000000000000000000000000000000000000000000000000000000000000016906313542a4e90602401602060405180830381865afa158015610c98573d6000803e3d6000fd5b505050506040513d601f19601f82011682018060405250810190610cbc9190614ce8565b60405163871ef04960e01b8152600481018290529091506000906001600160a01b037f0000000000000000000000000000000000000000000000000000000000000000169063871ef04990602401602060405180830381865afa158015610d27573d6000803e3d6000fd5b505050506040513d601f19601f82011682018060405250810190610d4b9190614d01565b90506001600160c01b0381161580610de557507f00000000000000000000000000000000000000000000000000000000000000006001600160a01b0316639aa1653d6040518163ffffffff1660e01b8152600401602060405180830381865afa158015610dbc573d6000803e3d6000fd5b505050506040513d601f19601f82011682018060405250810190610de09190614d2a565b60ff16155b15610e055760408051600080825260208201909252905b50949350505050565b6000610e19826001600160c01b03166137b4565b90506000805b8251811015610eef577f00000000000000000000000000000000000000000000000000000000000000006001600160a01b0316633ca5a5f5848381518110610e6957610e69614b90565b01602001516040516001600160e01b031960e084901b16815260f89190911c6004820152602401602060405180830381865afa158015610ead573d6000803e3d6000fd5b505050506040513d601f19601f82011682018060405250810190610ed19190614ce8565b610edb908361412f565b915080610ee781614d4d565b915050610e1f565b506000816001600160401b03811115610f0a57610f0a614147565b604051908082528060200260200182016040528015610f33578160200160208202803683370190505b5090506000805b84518110156110f2576000858281518110610f5757610f57614b90565b0160200151604051633ca5a5f560e01b815260f89190911c6004820181905291506000906001600160a01b037f00000000000000000000000000000000000000000000000000000000000000001690633ca5a5f590602401602060405180830381865afa158015610fcc573d6000803e3d6000fd5b505050506040513d601f19601f82011682018060405250810190610ff09190614ce8565b905060005b818110156110dc576040516356e4026d60e11b815260ff84166004820152602481018290527f00000000000000000000000000000000000000000000000000000000000000006001600160a01b03169063adc804da906044016040805180830381865afa15801561106a573d6000803e3d6000fd5b505050506040513d601f19601f8201168201806040525081019061108e9190614d7d565b600001518686815181106110a4576110a4614b90565b6001600160a01b0390921660209283029190910190910152846110c681614d4d565b95505080806110d490614d4d565b915050610ff5565b50505080806110ea90614d4d565b915050610f3a565b5090979650505050505050565b611107613876565b611110816138d0565b50565b7f00000000000000000000000000000000000000000000000000000000000000006001600160a01b0316638da5cb5b6040518163ffffffff1660e01b8152600401602060405180830381865afa158015611171573d6000803e3d6000fd5b505050506040513d601f19601f820116820180604052508101906111959190614dbe565b6001600160a01b0316336001600160a01b0316146112415760405162461bcd60e51b815260206004820152605c60248201527f424c535369676e6174757265436865636b65722e6f6e6c79436f6f7264696e6160448201527f746f724f776e65723a2063616c6c6572206973206e6f7420746865206f776e6560648201527f72206f6620746865207265676973747279436f6f7264696e61746f7200000000608482015260a40161099b565b61111081613939565b600054610100900460ff161580801561126a5750600054600160ff909116105b806112845750303b158015611284575060005460ff166001145b6112e75760405162461bcd60e51b815260206004820152602e60248201527f496e697469616c697a61626c653a20636f6e747261637420697320616c72656160448201526d191e481a5b9a5d1a585b1a5e995960921b606482015260840161099b565b6000805460ff19166001179055801561130a576000805461ff0019166101001790555b6113148383613980565b801561135a576000805461ff0019169055604051600181527f7f26b83ff96e1f2b6a682f133852f6798a09c465da95921460cefb38474024989060200160405180910390a15b505050565b604080518082019091526060808252602082015260008260400151516040518060400160405280600181526020016000815250511480156113bb57508260a0015151604051806040016040528060018152602001600081525051145b80156113e257508260c0015151604051806040016040528060018152602001600081525051145b801561140957508260e0015151604051806040016040528060018152602001600081525051145b6114735760405162461bcd60e51b8152602060048201526041602482015260008051602061524683398151915260448201527f7265733a20696e7075742071756f72756d206c656e677468206d69736d6174636064820152600d60fb1b608482015260a40161099b565b825151602084015151146114eb5760405162461bcd60e51b815260206004820152604460248201819052600080516020615246833981519152908201527f7265733a20696e707574206e6f6e7369676e6572206c656e677468206d69736d6064820152630c2e8c6d60e31b608482015260a40161099b565b4363ffffffff168463ffffffff161061155a5760405162461bcd60e51b815260206004820152603c602482015260008051602061524683398151915260448201527f7265733a20696e76616c6964207265666572656e636520626c6f636b00000000606482015260840161099b565b60408051808201825260008082526020808301829052835180850185526060808252818301528451808601865260018082529083019390935284518381528086019095529293919082810190803683370190505060208281019190915260408051808201825260018082526000919093015280518281528082019091529081602001602082028036833701905050815260408051808201909152606080825260208201528560200151516001600160401b0381111561161b5761161b614147565b604051908082528060200260200182016040528015611644578160200160208202803683370190505b5081526020860151516001600160401b0381111561166457611664614147565b60405190808252806020026020018201604052801561168d578160200160208202803683370190505b508160200181905250600061173960405180604001604052806001815260200160008152507f00000000000000000000000000000000000000000000000000000000000000006001600160a01b0316639aa1653d6040518163ffffffff1660e01b8152600401602060405180830381865afa158015611710573d6000803e3d6000fd5b505050506040513d601f19601f820116820180604052508101906117349190614d2a565b613a01565b905060005b8760200151518110156119d4576117838860200151828151811061176457611764614b90565b6020026020010151805160009081526020918201519091526040902090565b8360200151828151811061179957611799614b90565b602090810291909101015280156118595760208301516117ba600183614c74565b815181106117ca576117ca614b90565b602002602001015160001c836020015182815181106117eb576117eb614b90565b602002602001015160001c11611859576040805162461bcd60e51b815260206004820152602481019190915260008051602061524683398151915260448201527f7265733a206e6f6e5369676e65725075626b657973206e6f7420736f72746564606482015260840161099b565b7f00000000000000000000000000000000000000000000000000000000000000006001600160a01b03166304ec63518460200151838151811061189e5761189e614b90565b60200260200101518b8b6000015185815181106118bd576118bd614b90565b60200260200101516040518463ffffffff1660e01b81526004016118fa9392919092835263ffffffff918216602084015216604082015260600190565b602060405180830381865afa158015611917573d6000803e3d6000fd5b505050506040513d601f19601f8201168201806040525081019061193b9190614d01565b6001600160c01b03168360000151828151811061195a5761195a614b90565b6020026020010181815250506119c06108bd611994848660000151858151811061198657611986614b90565b602002602001015116613a92565b8a6020015184815181106119aa576119aa614b90565b6020026020010151613abd90919063ffffffff16565b9450806119cc81614d4d565b91505061173e565b50506119df83613ba1565b60975490935060ff166000816119f6576000611a78565b7f00000000000000000000000000000000000000000000000000000000000000006001600160a01b031663c448feb86040518163ffffffff1660e01b8152600401602060405180830381865afa158015611a54573d6000803e3d6000fd5b505050506040513d601f19601f82011682018060405250810190611a789190614ce8565b905060005b604051806040016040528060018152602001600081525051811015612183578215611c09578963ffffffff16827f00000000000000000000000000000000000000000000000000000000000000006001600160a01b031663249a0c4260405180604001604052806001815260200160008152508581518110611b0157611b01614b90565b01602001516040516001600160e01b031960e084901b16815260f89190911c6004820152602401602060405180830381865afa158015611b45573d6000803e3d6000fd5b505050506040513d601f19601f82011682018060405250810190611b699190614ce8565b611b73919061412f565b11611c095760405162461bcd60e51b8152602060048201526066602482015260008051602061524683398151915260448201527f7265733a205374616b6552656769737472792075706461746573206d7573742060648201527f62652077697468696e207769746864726177616c44656c6179426c6f636b732060848201526577696e646f7760d01b60a482015260c40161099b565b7f00000000000000000000000000000000000000000000000000000000000000006001600160a01b03166368bccaac60405180604001604052806001815260200160008152508381518110611c6057611c60614b90565b602001015160f81c60f81b60f81c8c8c60a001518581518110611c8557611c85614b90565b60209081029190910101516040516001600160e01b031960e086901b16815260ff909316600484015263ffffffff9182166024840152166044820152606401602060405180830381865afa158015611ce1573d6000803e3d6000fd5b505050506040513d601f19601f82011682018060405250810190611d059190614ddb565b6001600160401b031916611d288a60400151838151811061176457611764614b90565b67ffffffffffffffff191614611dc45760405162461bcd60e51b8152602060048201526061602482015260008051602061524683398151915260448201527f7265733a2071756f72756d41706b206861736820696e2073746f72616765206460648201527f6f6573206e6f74206d617463682070726f76696465642071756f72756d2061706084820152606b60f81b60a482015260c40161099b565b611df489604001518281518110611ddd57611ddd614b90565b6020026020010151876133ac90919063ffffffff16565b95507f00000000000000000000000000000000000000000000000000000000000000006001600160a01b031663c8294c5660405180604001604052806001815260200160008152508381518110611e4d57611e4d614b90565b602001015160f81c60f81b60f81c8c8c60c001518581518110611e7257611e72614b90565b60209081029190910101516040516001600160e01b031960e086901b16815260ff909316600484015263ffffffff9182166024840152166044820152606401602060405180830381865afa158015611ece573d6000803e3d6000fd5b505050506040513d601f19601f82011682018060405250810190611ef29190614e06565b85602001518281518110611f0857611f08614b90565b6001600160601b03909216602092830291909101820152850151805182908110611f3457611f34614b90565b602002602001015185600001518281518110611f5257611f52614b90565b60200260200101906001600160601b031690816001600160601b0316815250506000805b8a602001515181101561216e57611fe186600001518281518110611f9c57611f9c614b90565b602002602001015160405180604001604052806001815260200160008152508581518110611fcc57611fcc614b90565b016020015160f81c60ff161c60019081161490565b1561215c577f00000000000000000000000000000000000000000000000000000000000000006001600160a01b031663f2be94ae6040518060400160405280600181526020016000815250858151811061203d5761203d614b90565b602001015160f81c60f81b60f81c8e8960200151858151811061206257612062614b90565b60200260200101518f60e00151888151811061208057612080614b90565b6020026020010151878151811061209957612099614b90565b60209081029190910101516040516001600160e01b031960e087901b16815260ff909416600485015263ffffffff92831660248501526044840191909152166064820152608401602060405180830381865afa1580156120fd573d6000803e3d6000fd5b505050506040513d601f19601f820116820180604052508101906121219190614e06565b875180518590811061213557612135614b90565b602002602001018181516121499190614e23565b6001600160601b03169052506001909101905b8061216681614d4d565b915050611f76565b5050808061217b90614d4d565b915050611a7d565b50505060008061219d8a868a606001518b608001516107a2565b915091508161220e5760405162461bcd60e51b8152602060048201526043602482015260008051602061524683398151915260448201527f7265733a2070616972696e6720707265636f6d70696c652063616c6c206661696064820152621b195960ea1b608482015260a40161099b565b8061226f5760405162461bcd60e51b8152602060048201526039602482015260008051602061524683398151915260448201527f7265733a207369676e617475726520697320696e76616c696400000000000000606482015260840161099b565b5050600087826020015160405160200161228a929190614e4b565b60408051808303601f1901815291905280516020909101209299929850919650505050505050565b600062229cd74310156122c65750826122f2565b83336040516020016122d9929190614b75565b6040516020818303038152906040528051906020012090505b600081815260c9602052604090205463ffffffff16156123545760405162461bcd60e51b815260206004820152601b60248201527f42617463682077617320616c7265616479207375626d69747465640000000000604482015260640161099b565b34156123c35733600090815260ca60205260408120805434929061237990849061412f565b909155505033600081815260ca60209081526040918290205491519182527f0ea46f246ccfc58f7a93aa09bc6245a6818e97b1a160d186afe78993a3b194a0910160405180910390a25b33600090815260ca602052604090205461241f5760405162461bcd60e51b815260206004820152601860248201527f426174636865722062616c616e636520697320656d7074790000000000000000604482015260640161099b565b6040805180820182526000602080830182815263ffffffff43818116865287855260c9909352928590208451815492511515600160201b0264ffffffffff19909316941693909317179091559151909186917f1871c33134a542e0ab9facf7013d27b9ed95e64d299e9919ee091c9cfcb19fa5916124a09188908890614ebc565b60405180910390a2847f130d3e81af62e03ed6fff5e3bb343695ec513892cfad24d286486745dcc61437334387876040516124de9493929190614ee5565b60405180910390a25050505050565b6124f5613876565b6124ff6000613c3c565b565b6000818484604051612514929190614f20565b60405180910390201490509392505050565b336001600160a01b037f0000000000000000000000000000000000000000000000000000000000000000161461256e5760405162461bcd60e51b815260040161099b90614f30565b604051639926ee7d60e01b81526001600160a01b037f00000000000000000000000000000000000000000000000000000000000000001690639926ee7d906125bc9085908590600401614ff5565b600060405180830381600087803b1580156125d657600080fd5b505af11580156125ea573d6000803e3d6000fd5b505050505050565b336001600160a01b037f0000000000000000000000000000000000000000000000000000000000000000161461263a5760405162461bcd60e51b815260040161099b90614f30565b6040516351b27a6d60e11b81526001600160a01b0382811660048301527f0000000000000000000000000000000000000000000000000000000000000000169063a364f4da906024015b600060405180830381600087803b15801561269e57600080fd5b505af11580156126b2573d6000803e3d6000fd5b5050505050565b6126c1613876565b60405163a98fb35560e01b81526001600160a01b037f0000000000000000000000000000000000000000000000000000000000000000169063a98fb35590612684908490600401615040565b60005a905060008484604051602001612727929190614b75565b60408051601f198184030181529181528151602092830120600081815260c990935291205490915063ffffffff166127985760405162461bcd60e51b8152602060048201526014602482015273426174636820646f65736e27742065786973747360601b604482015260640161099b565b600081815260c96020526040902054600160201b900460ff16156127f85760405162461bcd60e51b815260206004820152601760248201527610985d18da08185b1c9958591e481c995cdc1bdb991959604a1b604482015260640161099b565b6001600160a01b038416600090815260ca60205260409020546128565760405162461bcd60e51b81526020600482015260166024820152754261746368657220686173206e6f2062616c616e636560501b604482015260640161099b565b600081815260c960205260408120805464ff00000000198116600160201b17909155819061288c90849063ffffffff168761135f565b91509150604360ff1682602001516000815181106128ac576128ac614b90565b60200260200101516128be9190614bc8565b6001600160601b0316606483600001516000815181106128e0576128e0614b90565b60200260200101516001600160601b03166128fb9190614bf7565b10156129195760405162461bcd60e51b815260040161099b90614c16565b6040516001600160a01b038716815287907f8511746b73275e06971968773119b9601fc501d7bdf3824d8754042d148940e29060200160405180910390a260005a905060003a6129698388614c74565b612976906201117061412f565b6129809190614bf7565b6001600160a01b038916600090815260ca60205260409020549091508111156129bb5760405162461bcd60e51b815260040161099b90614c8b565b6001600160a01b038816600090815260ca6020526040812080548392906129e3908490614c74565b90915550506001600160a01b038816600081815260ca60209081526040918290205491519182527f0ea46f246ccfc58f7a93aa09bc6245a6818e97b1a160d186afe78993a3b194a0910160405180910390a2604051339082156108fc029083906000818181858888f19350505050158015612a62573d6000803e3d6000fd5b50505050505050505050565b6000808383604051602001612a84929190614b75565b60408051601f198184030181529181528151602092830120600090815260c990925290205463ffffffff169150505b92915050565b606060007f00000000000000000000000000000000000000000000000000000000000000006001600160a01b0316639aa1653d6040518163ffffffff1660e01b8152600401602060405180830381865afa158015612b1b573d6000803e3d6000fd5b505050506040513d601f19601f82011682018060405250810190612b3f9190614d2a565b60ff16905080612b5d57505060408051600081526020810190915290565b6000805b82811015612c1257604051633ca5a5f560e01b815260ff821660048201527f00000000000000000000000000000000000000000000000000000000000000006001600160a01b031690633ca5a5f590602401602060405180830381865afa158015612bd0573d6000803e3d6000fd5b505050506040513d601f19601f82011682018060405250810190612bf49190614ce8565b612bfe908361412f565b915080612c0a81614d4d565b915050612b61565b506000816001600160401b03811115612c2d57612c2d614147565b604051908082528060200260200182016040528015612c56578160200160208202803683370190505b5090506000805b7f00000000000000000000000000000000000000000000000000000000000000006001600160a01b0316639aa1653d6040518163ffffffff1660e01b8152600401602060405180830381865afa158015612cbb573d6000803e3d6000fd5b505050506040513d601f19601f82011682018060405250810190612cdf9190614d2a565b60ff16811015612e7857604051633ca5a5f560e01b815260ff821660048201526000907f00000000000000000000000000000000000000000000000000000000000000006001600160a01b031690633ca5a5f590602401602060405180830381865afa158015612d53573d6000803e3d6000fd5b505050506040513d601f19601f82011682018060405250810190612d779190614ce8565b905060005b81811015612e63576040516356e4026d60e11b815260ff84166004820152602481018290527f00000000000000000000000000000000000000000000000000000000000000006001600160a01b03169063adc804da906044016040805180830381865afa158015612df1573d6000803e3d6000fd5b505050506040513d601f19601f82011682018060405250810190612e159190614d7d565b60000151858581518110612e2b57612e2b614b90565b6001600160a01b039092166020928302919091019091015283612e4d81614d4d565b9450508080612e5b90614d4d565b915050612d7c565b50508080612e7090614d4d565b915050612c5d565b5090949350505050565b612e8a613876565b6001600160a01b038116612eef5760405162461bcd60e51b815260206004820152602660248201527f4f776e61626c653a206e6577206f776e657220697320746865207a65726f206160448201526564647265737360d01b606482015260840161099b565b61111081613c3c565b6000808383604051602001612f0e929190614b75565b60408051808303601f190181529181528151602092830120600090815260c9909252902054600160201b900460ff16949350505050565b6065546001600160a01b03163314612fda5760405162461bcd60e51b815260206004820152604c60248201527f536572766963654d616e61676572426173652e6f6e6c7952657761726473496e60448201527f69746961746f723a2063616c6c6572206973206e6f742074686520726577617260648201526b32399034b734ba34b0ba37b960a11b608482015260a40161099b565b60005b818110156132ae57828282818110612ff757612ff7614b90565b90506020028101906130099190615053565b61301a906040810190602001614712565b6001600160a01b03166323b872dd333086868681811061303c5761303c614b90565b905060200281019061304e9190615053565b604080516001600160e01b031960e087901b1681526001600160a01b039485166004820152939092166024840152013560448201526064016020604051808303816000875af11580156130a5573d6000803e3d6000fd5b505050506040513d601f19601f820116820180604052508101906130c9919061507e565b5060008383838181106130de576130de614b90565b90506020028101906130f09190615053565b613101906040810190602001614712565b604051636eb1769f60e11b81523060048201526001600160a01b037f000000000000000000000000000000000000000000000000000000000000000081166024830152919091169063dd62ed3e90604401602060405180830381865afa15801561316f573d6000803e3d6000fd5b505050506040513d601f19601f820116820180604052508101906131939190614ce8565b90508383838181106131a7576131a7614b90565b90506020028101906131b99190615053565b6131ca906040810190602001614712565b6001600160a01b031663095ea7b37f00000000000000000000000000000000000000000000000000000000000000008387878781811061320c5761320c614b90565b905060200281019061321e9190615053565b6040013561322c919061412f565b6040516001600160e01b031960e085901b1681526001600160a01b03909216600483015260248201526044016020604051808303816000875af1158015613277573d6000803e3d6000fd5b505050506040513d601f19601f8201168201806040525081019061329b919061507e565b5050806132a790614d4d565b9050612fdd565b5060405163fce36c7d60e01b81526001600160a01b037f0000000000000000000000000000000000000000000000000000000000000000169063fce36c7d906125bc90859085906004016150f6565b60008361330b868585613c8e565b1495945050505050565b604080518082019091526000808252602082015261333161403f565b835181526020808501519082015260408082018490526000908360608460076107d05a03fa905080801561336457613366565bfe5b50806133a45760405162461bcd60e51b815260206004820152600d60248201526c1958cb5b5d5b0b59985a5b1959609a1b604482015260640161099b565b505092915050565b60408051808201909152600080825260208201526133c861405d565b835181526020808501518183015283516040808401919091529084015160608301526000908360808460066107d05a03fa90508080156133645750806133a45760405162461bcd60e51b815260206004820152600d60248201526c1958cb5859190b59985a5b1959609a1b604482015260640161099b565b61344861407b565b50604080516080810182527f198e9393920d483a7260bfb731fb5d25f1aa493335a9e71297e485b7aef312c28183019081527f1800deef121f1e76426a00665e5c4479674322d4f75edadd46debd5cd992f6ed6060830152815281518083019092527f275dc4a288d1afb3cbb1ac09187524c7db36395df7be3b99e673b13a075a65ec82527f1d9befcd05a5323e6da4d435f3b617cdb3af83285c2df711ef39c01571827f9d60208381019190915281019190915290565b60408051808201909152600080825260208201526000808061353060008051602061522683398151915286614ba6565b90505b61353c81613d88565b9093509150600080516020615226833981519152828309831415613576576040805180820190915290815260208101919091529392505050565b600080516020615226833981519152600182089050613533565b6040805180820182528681526020808201869052825180840190935286835282018490526000918291906135c26140a0565b60005b60028110156137875760006135db826006614bf7565b90508482600281106135ef576135ef614b90565b6020020151518361360183600061412f565b600c811061361157613611614b90565b602002015284826002811061362857613628614b90565b6020020151602001518382600161363f919061412f565b600c811061364f5761364f614b90565b602002015283826002811061366657613666614b90565b602002015151518361367983600261412f565b600c811061368957613689614b90565b60200201528382600281106136a0576136a0614b90565b60200201515160016020020151836136b983600361412f565b600c81106136c9576136c9614b90565b60200201528382600281106136e0576136e0614b90565b6020020151602001516000600281106136fb576136fb614b90565b60200201518361370c83600461412f565b600c811061371c5761371c614b90565b602002015283826002811061373357613733614b90565b60200201516020015160016002811061374e5761374e614b90565b60200201518361375f83600561412f565b600c811061376f5761376f614b90565b6020020152508061377f81614d4d565b9150506135c5565b506137906140bf565b60006020826101808560088cfa9151919c9115159b50909950505050505050505050565b60606000806137c284613a92565b61ffff166001600160401b038111156137dd576137dd614147565b6040519080825280601f01601f191660200182016040528015613807576020820181803683370190505b5090506000805b82518210801561381f575061010081105b15612e78576001811b935085841615613866578060f81b83838151811061384857613848614b90565b60200101906001600160f81b031916908160001a9053508160010191505b61386f81614d4d565b905061380e565b6033546001600160a01b031633146124ff5760405162461bcd60e51b815260206004820181905260248201527f4f776e61626c653a2063616c6c6572206973206e6f7420746865206f776e6572604482015260640161099b565b606554604080516001600160a01b03928316815291831660208301527fe11cddf1816a43318ca175bbc52cd0185436e9cbead7c83acc54a73e461717e3910160405180910390a1606580546001600160a01b0319166001600160a01b0392909216919091179055565b6097805460ff19168215159081179091556040519081527f40e4ed880a29e0f6ddce307457fb75cddf4feef7d3ecb0301bfdf4976a0e2dfc9060200160405180910390a150565b600054610100900460ff166139eb5760405162461bcd60e51b815260206004820152602b60248201527f496e697469616c697a61626c653a20636f6e7472616374206973206e6f74206960448201526a6e697469616c697a696e6760a81b606482015260840161099b565b6139f482613c3c565b6139fd816138d0565b5050565b600080613a0d84613e0a565b9050808360ff166001901b11613a8b5760405162461bcd60e51b815260206004820152603f60248201527f4269746d61705574696c732e6f72646572656442797465734172726179546f4260448201527f69746d61703a206269746d61702065786365656473206d61782076616c756500606482015260840161099b565b9392505050565b6000805b8215612ab357613aa7600184614c74565b9092169180613ab581615203565b915050613a96565b60408051808201909152600080825260208201526102008261ffff1610613b195760405162461bcd60e51b815260206004820152601060248201526f7363616c61722d746f6f2d6c6172676560801b604482015260640161099b565b8161ffff1660011415613b2d575081612ab3565b6040805180820190915260008082526020820181905284906001905b8161ffff168661ffff1610613b9657600161ffff871660ff83161c81161415613b7957613b7684846133ac565b93505b613b8383846133ac565b92506201fffe600192831b169101613b49565b509195945050505050565b60408051808201909152600080825260208201528151158015613bc657506020820151155b15613be4575050604080518082019091526000808252602082015290565b6040518060400160405280836000015181526020016000805160206152268339815191528460200151613c179190614ba6565b613c2f90600080516020615226833981519152614c74565b905292915050565b919050565b603380546001600160a01b038381166001600160a01b0319831681179093556040519116919082907f8be0079c531659141344cd1fd0a4f28419497f9722a3daafe3b4186f6b6457e090600090a35050565b600060208451613c9e9190614ba6565b15613d255760405162461bcd60e51b815260206004820152604b60248201527f4d65726b6c652e70726f63657373496e636c7573696f6e50726f6f664b65636360448201527f616b3a2070726f6f66206c656e6774682073686f756c642062652061206d756c60648201526a3a34b836329037b310199960a91b608482015260a40161099b565b8260205b85518111610dfc57613d3c600285614ba6565b613d5d57816000528086015160205260406000209150600284049350613d76565b8086015160005281602052604060002091506002840493505b613d8160208261412f565b9050613d29565b60008080600080516020615226833981519152600360008051602061522683398151915286600080516020615226833981519152888909090890506000613dfe827f0c19139cb84c680a6e14116da060561765e05aa45a1c72a34f082305b61f3f52600080516020615226833981519152613f97565b91959194509092505050565b600061010082511115613e935760405162461bcd60e51b8152602060048201526044602482018190527f4269746d61705574696c732e6f72646572656442797465734172726179546f42908201527f69746d61703a206f7264657265644279746573417272617920697320746f6f206064820152636c6f6e6760e01b608482015260a40161099b565b8151613ea157506000919050565b60008083600081518110613eb757613eb7614b90565b0160200151600160f89190911c81901b92505b8451811015613f8e57848181518110613ee557613ee5614b90565b0160200151600160f89190911c1b9150828211613f7a5760405162461bcd60e51b815260206004820152604760248201527f4269746d61705574696c732e6f72646572656442797465734172726179546f4260448201527f69746d61703a206f72646572656442797465734172726179206973206e6f74206064820152661bdc99195c995960ca1b608482015260a40161099b565b91811791613f8781614d4d565b9050613eca565b50909392505050565b600080613fa26140bf565b613faa6140dd565b602080825281810181905260408201819052606082018890526080820187905260a082018690528260c08360056107d05a03fa92508280156133645750826140345760405162461bcd60e51b815260206004820152601a60248201527f424e3235342e6578704d6f643a2063616c6c206661696c757265000000000000604482015260640161099b565b505195945050505050565b60405180606001604052806003906020820280368337509192915050565b60405180608001604052806004906020820280368337509192915050565b604051806040016040528061408e6140fb565b815260200161409b6140fb565b905290565b604051806101800160405280600c906020820280368337509192915050565b60405180602001604052806001906020820280368337509192915050565b6040518060c001604052806006906020820280368337509192915050565b60405180604001604052806002906020820280368337509192915050565b634e487b7160e01b600052601160045260246000fd5b6000821982111561414257614142614119565b500190565b634e487b7160e01b600052604160045260246000fd5b604080519081016001600160401b038111828210171561417f5761417f614147565b60405290565b60405161010081016001600160401b038111828210171561417f5761417f614147565b604051601f8201601f191681016001600160401b03811182821017156141d0576141d0614147565b604052919050565b60006001600160401b038311156141f1576141f1614147565b614204601f8401601f19166020016141a8565b905082815283838301111561421857600080fd5b828260208301376000602084830101529392505050565b600082601f83011261424057600080fd5b613a8b838335602085016141d8565b6001600160a01b038116811461111057600080fd5b600080600080600080600080610100898b03121561428157600080fd5b88359750602089013596506040890135955060608901356001600160601b0319811681146142ae57600080fd5b94506080890135935060a08901356001600160401b038111156142d057600080fd5b6142dc8b828c0161422f565b93505060c0890135915060e08901356142f48161424f565b809150509295985092959890939650565b60006040828403121561431757600080fd5b61431f61415d565b9050813581526020820135602082015292915050565b600082601f83011261434657600080fd5b61434e61415d565b80604084018581111561436057600080fd5b845b8181101561437a578035845260209384019301614362565b509095945050505050565b60006080828403121561439757600080fd5b61439f61415d565b90506143ab8383614335565b81526143ba8360408401614335565b602082015292915050565b60008060008061012085870312156143dc57600080fd5b843593506143ed8660208701614305565b92506143fc8660608701614385565b915061440b8660e08701614305565b905092959194509250565b60006001600160401b0382111561442f5761442f614147565b5060051b60200190565b803563ffffffff81168114613c3757600080fd5b600082601f83011261445e57600080fd5b8135602061447361446e83614416565b6141a8565b82815260059290921b8401810191818101908684111561449257600080fd5b8286015b848110156144b4576144a781614439565b8352918301918301614496565b509695505050505050565b600082601f8301126144d057600080fd5b813560206144e061446e83614416565b82815260069290921b840181019181810190868411156144ff57600080fd5b8286015b848110156144b4576145158882614305565b835291830191604001614503565b600082601f83011261453457600080fd5b8135602061454461446e83614416565b82815260059290921b8401810191818101908684111561456357600080fd5b8286015b848110156144b45780356001600160401b038111156145865760008081fd5b6145948986838b010161444d565b845250918301918301614567565b600061018082840312156145b557600080fd5b6145bd614185565b905081356001600160401b03808211156145d657600080fd5b6145e28583860161444d565b835260208401359150808211156145f857600080fd5b614604858386016144bf565b6020840152604084013591508082111561461d57600080fd5b614629858386016144bf565b604084015261463b8560608601614385565b606084015261464d8560e08601614305565b608084015261012084013591508082111561466757600080fd5b6146738583860161444d565b60a084015261014084013591508082111561468d57600080fd5b6146998583860161444d565b60c08401526101608401359150808211156146b357600080fd5b506146c084828501614523565b60e08301525092915050565b600080604083850312156146df57600080fd5b8235915060208301356001600160401b038111156146fc57600080fd5b614708858286016145a2565b9150509250929050565b60006020828403121561472457600080fd5b8135613a8b8161424f565b6020808252825182820181905260009190848201906040850190845b818110156147705783516001600160a01b03168352928401929184019160010161474b565b50909695505050505050565b801515811461111057600080fd5b60006020828403121561479c57600080fd5b8135613a8b8161477c565b600080604083850312156147ba57600080fd5b82356147c58161424f565b915060208301356147d58161424f565b809150509250929050565b6000806000606084860312156147f557600080fd5b8335925061480560208501614439565b915060408401356001600160401b0381111561482057600080fd5b61482c868287016145a2565b9150509250925092565b600081518084526020808501945080840160005b8381101561486f5781516001600160601b03168752958201959082019060010161484a565b509495945050505050565b60408152600083516040808401526148956080840182614836565b90506020850151603f198483030160608501526148b28282614836565b925050508260208301529392505050565b60008083601f8401126148d557600080fd5b5081356001600160401b038111156148ec57600080fd5b60208301915083602082850101111561490457600080fd5b9250929050565b60008060006040848603121561492057600080fd5b8335925060208401356001600160401b0381111561493d57600080fd5b614949868287016148c3565b9497909650939450505050565b60008060006040848603121561496b57600080fd5b83356001600160401b0381111561498157600080fd5b61498d868287016148c3565b909790965060209590950135949350505050565b600080604083850312156149b457600080fd5b82356149bf8161424f565b915060208301356001600160401b03808211156149db57600080fd5b90840190606082870312156149ef57600080fd5b604051606081018181108382111715614a0a57614a0a614147565b604052823582811115614a1c57600080fd5b614a288882860161422f565b82525060208301356020820152604083013560408201528093505050509250929050565b600060208284031215614a5e57600080fd5b81356001600160401b03811115614a7457600080fd5b8201601f81018413614a8557600080fd5b614a94848235602084016141d8565b949350505050565b600080600060608486031215614ab157600080fd5b8335925060208401356148058161424f565b60008060408385031215614ad657600080fd5b8235915060208301356147d58161424f565b600060208284031215614afa57600080fd5b5035919050565b60008060208385031215614b1457600080fd5b82356001600160401b0380821115614b2b57600080fd5b818501915085601f830112614b3f57600080fd5b813581811115614b4e57600080fd5b8660208260051b8501011115614b6357600080fd5b60209290920196919550909350505050565b91825260601b6001600160601b031916602082015260340190565b634e487b7160e01b600052603260045260246000fd5b600082614bc357634e487b7160e01b600052601260045260246000fd5b500690565b60006001600160601b0380831681851681830481118215151615614bee57614bee614119565b02949350505050565b6000816000190483118215151615614c1157614c11614119565b500290565b602080825260409082018190527f5369676e61746f7269657320646f206e6f74206f776e206174206c6561737420908201527f7468726573686f6c642070657263656e74616765206f6620612071756f72756d606082015260800190565b600082821015614c8657614c86614119565b500390565b6020808252603c908201527f4261746368657220686173206e6f742073756666696369656e742066756e647360408201527f20666f7220706179696e672074686973207472616e73616374696f6e00000000606082015260800190565b600060208284031215614cfa57600080fd5b5051919050565b600060208284031215614d1357600080fd5b81516001600160c01b0381168114613a8b57600080fd5b600060208284031215614d3c57600080fd5b815160ff81168114613a8b57600080fd5b6000600019821415614d6157614d61614119565b5060010190565b6001600160601b038116811461111057600080fd5b600060408284031215614d8f57600080fd5b614d9761415d565b8251614da28161424f565b81526020830151614db281614d68565b60208201529392505050565b600060208284031215614dd057600080fd5b8151613a8b8161424f565b600060208284031215614ded57600080fd5b815167ffffffffffffffff1981168114613a8b57600080fd5b600060208284031215614e1857600080fd5b8151613a8b81614d68565b60006001600160601b0383811690831681811015614e4357614e43614119565b039392505050565b63ffffffff60e01b8360e01b1681526000600482018351602080860160005b83811015614e8657815185529382019390820190600101614e6a565b5092979650505050505050565b81835281816020850137506000828201602090810191909152601f909101601f19169091010190565b63ffffffff84168152604060208201526000614edc604083018486614e93565b95945050505050565b6001600160a01b038516815263ffffffff84166020820152606060408201819052600090614f169083018486614e93565b9695505050505050565b8183823760009101908152919050565b60208082526052908201527f536572766963654d616e61676572426173652e6f6e6c7952656769737472794360408201527f6f6f7264696e61746f723a2063616c6c6572206973206e6f742074686520726560608201527133b4b9ba393c9031b7b7b93234b730ba37b960711b608082015260a00190565b6000815180845260005b81811015614fce57602081850181015186830182015201614fb2565b81811115614fe0576000602083870101525b50601f01601f19169290920160200192915050565b60018060a01b038316815260406020820152600082516060604084015261501f60a0840182614fa8565b90506020840151606084015260408401516080840152809150509392505050565b602081526000613a8b6020830184614fa8565b60008235609e1983360301811261506957600080fd5b9190910192915050565b8035613c378161424f565b60006020828403121561509057600080fd5b8151613a8b8161477c565b8183526000602080850194508260005b8581101561486f5781356150be8161424f565b6001600160a01b03168752818301356150d681614d68565b6001600160601b03168784015260409687019691909101906001016150ab565b60208082528181018390526000906040808401600586901b8501820187855b888110156151f557878303603f190184528135368b9003609e1901811261513b57600080fd5b8a0160a0813536839003601e1901811261515457600080fd5b820180356001600160401b0381111561516c57600080fd5b8060061b360384131561517e57600080fd5b828752615190838801828c850161509b565b9250505061519f888301615073565b6001600160a01b031688860152818701358786015260606151c1818401614439565b63ffffffff169086015260806151d8838201614439565b63ffffffff16950194909452509285019290850190600101615115565b509098975050505050505050565b600061ffff8083168181141561521b5761521b614119565b600101939250505056fe30644e72e131a029b85045b68181585d97816a916871ca8d3c208c16d87cfd47424c535369676e6174757265436865636b65722e636865636b5369676e617475a2646970667358221220d7e7d3a54eade4d2eb8f5400b76f624516b1aea1219bbb72d32a9bcba099b67d64736f6c634300080c0033","linkReferences":{}},"methodIdentifiers":{"avsDirectory()":"6b3aa72e","balanceOf(address)":"70a08231","batchesState(bytes32)":"b099627e","blsApkRegistry()":"5df45946","checkPublicInput(bytes,bytes32)":"95c6d604","checkSignatures(bytes32,uint32,(uint32[],(uint256,uint256)[],(uint256,uint256)[],(uint256[2],uint256[2]),(uint256,uint256),uint32[],uint32[],uint32[][]))":"4ae07c37","createAVSRewardsSubmission(((address,uint96)[],address,uint256,uint32,uint32)[])":"fce36c7d","createNewTask(bytes32,string)":"5c008994","delegation()":"df5cf723","deregisterOperatorFromAVS(address)":"a364f4da","getOperatorRestakedStrategies(address)":"33cfb7b7","getRestakeableStrategies()":"e481af9d","initialize(address,address)":"485cc955","owner()":"8da5cb5b","registerOperatorToAVS(address,(bytes,bytes32,uint256))":"9926ee7d","registryCoordinator()":"6d14a987","renounceOwnership()":"715018a6","respondToTask(bytes32,(uint32[],(uint256,uint256)[],(uint256,uint256)[],(uint256[2],uint256[2]),(uint256,uint256),uint32[],uint32[],uint32[][]))":"2dd94eba","respondToTaskV2(bytes32,address,(uint32[],(uint256,uint256)[],(uint256,uint256)[],(uint256[2],uint256[2]),(uint256,uint256),uint32[],uint32[],uint32[][]))":"ab21739a","responded(bytes32,address)":"f4d782d7","rewardsInitiator()":"fc299dee","setRewardsInitiator(address)":"3bc28c8c","setStaleStakesForbidden(bool)":"416c7e5e","stakeRegistry()":"68304835","staleStakesForbidden()":"b98d0908","taskCreatedBlock(bytes32,address)":"ad22a445","transferOwnership(address)":"f2fde38b","trySignatureAndApkVerification(bytes32,(uint256,uint256),(uint256[2],uint256[2]),(uint256,uint256))":"171f1d5b","updateAVSMetadataURI(string)":"a98fb355","verifyBatchInclusion(bytes32,bytes32,bytes32,bytes20,bytes32,bytes,uint256,address)":"06045a91"},"id":122}